:0F00BB00D2B77580FF7590FF75A0FF75E87F22A3
:080049008F0D8E0C8D0B8C0A4B
:100051007B007A00790A900003111CF4F58090006E
:1000610002111CF4F590900001111CF4F5A011038C
:10007100FF547FF4F5E8EF20E703D38001C392B783
:01008100225C
:10008200E4FDFCC3ED9FEE6480F8EC6480985015AB
:10009200E4FBFA0BBB00010ABA07F8BBD0F50DBDB1
:0500A20000010C80DEEE
:0100A7002236
:1000A800E4F508F50911BB7F537E007D007C001143
:0300B8004980F488
:030000000200CA31
:0C00CA00787FE4F6D8FD75810D0200A8D7
:10000300BB010689828A83E0225002E722BBFE02FB
:09001300E32289828A83E493222E
:10001C00BB010CE58229F582E5833AF583E0225099
:10002C0006E92582F8E622BBFE06E92582F8E222E3
:0D003C00E58229F582E5833AF583E49322FD
:00000001FF
